{
  "contractName": "Gaming",
  "abi": [
    {
      "inputs": [],
      "payable": true,
      "stateMutability": "payable",
      "type": "constructor"
    },
    {
      "anonymous": false,
      "inputs": [
        {
          "indexed": false,
          "internalType": "address",
          "name": "funder",
          "type": "address"
        },
        {
          "indexed": false,
          "internalType": "uint256",
          "name": "amount",
          "type": "uint256"
        }
      ],
      "name": "GameFunded",
      "type": "event"
    },
    {
      "anonymous": false,
      "inputs": [
        {
          "indexed": false,
          "internalType": "address",
          "name": "player",
          "type": "address"
        },
        {
          "indexed": false,
          "internalType": "uint256",
          "name": "mysteryNumber",
          "type": "uint256"
        }
      ],
      "name": "PlayerLost",
      "type": "event"
    },
    {
      "anonymous": false,
      "inputs": [
        {
          "indexed": false,
          "internalType": "address",
          "name": "player",
          "type": "address"
        },
        {
          "indexed": false,
          "internalType": "uint256",
          "name": "mysteryNumber",
          "type": "uint256"
        },
        {
          "indexed": false,
          "internalType": "uint256",
          "name": "display",
          "type": "uint256"
        }
      ],
      "name": "PlayerOutput",
      "type": "event"
    },
    {
      "anonymous": false,
      "inputs": [
        {
          "indexed": false,
          "internalType": "address",
          "name": "player",
          "type": "address"
        },
        {
          "indexed": false,
          "internalType": "uint256",
          "name": "mysteryNumber",
          "type": "uint256"
        },
        {
          "indexed": false,
          "internalType": "uint256",
          "name": "display",
          "type": "uint256"
        },
        {
          "indexed": false,
          "internalType": "string",
          "name": "messg",
          "type": "string"
        }
      ],
      "name": "PlayerOutput1",
      "type": "event"
    },
    {
      "anonymous": false,
      "inputs": [
        {
          "indexed": false,
          "internalType": "address",
          "name": "player",
          "type": "address"
        },
        {
          "indexed": false,
          "internalType": "uint256",
          "name": "mysteryNumber",
          "type": "uint256"
        }
      ],
      "name": "PlayerWon",
      "type": "event"
    },
    {
      "payable": true,
      "stateMutability": "payable",
      "type": "fallback"
    },
    {
      "constant": true,
      "inputs": [
        {
          "internalType": "address",
          "name": "",
          "type": "address"
        }
      ],
      "name": "players",
      "outputs": [
        {
          "internalType": "uint256",
          "name": "wins",
          "type": "uint256"
        },
        {
          "internalType": "uint256",
          "name": "losses",
          "type": "uint256"
        }
      ],
      "payable": false,
      "stateMutability": "view",
      "type": "function"
    },
    {
      "constant": true,
      "inputs": [
        {
          "internalType": "uint256",
          "name": "number",
          "type": "uint256"
        },
        {
          "internalType": "uint256",
          "name": "display",
          "type": "uint256"
        },
        {
          "internalType": "bool",
          "name": "guess",
          "type": "bool"
        }
      ],
      "name": "determineWinner",
      "outputs": [
        {
          "internalType": "bool",
          "name": "",
          "type": "bool"
        }
      ],
      "payable": false,
      "stateMutability": "pure",
      "type": "function"
    },
    {
      "constant": false,
      "inputs": [
        {
          "internalType": "uint256",
          "name": "display",
          "type": "uint256"
        },
        {
          "internalType": "bool",
          "name": "guess",
          "type": "bool"
        }
      ],
      "name": "winOrLose",
      "outputs": [
        {
          "internalType": "bool",
          "name": "",
          "type": "bool"
        },
        {
          "internalType": "uint256",
          "name": "",
          "type": "uint256"
        }
      ],
      "payable": true,
      "stateMutability": "payable",
      "type": "function"
    },
    {
      "constant": false,
      "inputs": [],
      "name": "withdrawFunds",
      "outputs": [],
      "payable": false,
      "stateMutability": "nonpayable",
      "type": "function"
    },
    {
      "constant": false,
      "inputs": [],
      "name": "fundGame",
      "outputs": [],
      "payable": true,
      "stateMutability": "payable",
      "type": "function"
    }
  ],
  "bytecode": "0x6080604052336000806101000a81548173ffffffffffffffffffffffffffffffffffffffff021916908373ffffffffffffffffffffffffffffffffffffffff1602179055506001600060146101000a81548160ff02191690831515021790555061091a8061006e6000396000f3fe60806040526004361061004a5760003560e01c8063171273a51461004c57806324600fc3146100b5578063e169bf6c146100cc578063e2eb41ff146100d6578063fc541ef314610142575b005b34801561005857600080fd5b5061009b6004803603606081101561006f57600080fd5b81019080803590602001909291908035906020019092919080351515906020019092919050505061019b565b604051808215151515815260200191505060405180910390f35b3480156100c157600080fd5b506100ca6101ba565b005b6100d46102a8565b005b3480156100e257600080fd5b50610125600480360360208110156100f957600080fd5b81019080803573ffffffffffffffffffffffffffffffffffffffff1690602001909291905050506103ba565b604051808381526020018281526020019250505060405180910390f35b61017a6004803603604081101561015857600080fd5b81019080803590602001909291908035151590602001909291905050506103de565b60405180831515151581526020018281526020019250505060405180910390f35b600081156101ad5782841090506101b3565b82841190505b9392505050565b6000809054906101000a900473ffffffffffffffffffffffffffffffffffffffff1673ffffffffffffffffffffffffffffffffffffffff163373ffffffffffffffffffffffffffffffffffffffff161461025f576040517f08c379a00000000000000000000000000000000000000000000000000000000081526004018080602001828103825260218152602001806108c56021913960400191505060405180910390fd5b3373ffffffffffffffffffffffffffffffffffffffff166108fc479081150290604051600060405180830381858888f193505050501580156102a5573d6000803e3d6000fd5b50565b6000809054906101000a900473ffffffffffffffffffffffffffffffffffffffff1673ffffffffffffffffffffffffffffffffffffffff163373ffffffffffffffffffffffffffffffffffffffff161461034d576040517f08c379a00000000000000000000000000000000000000000000000000000000081526004018080602001828103825260218152602001806108c56021913960400191505060405180910390fd5b7f5c963fd7fde519af29d56159e6e3e18db4e5d3e4716c39c87958cf9e4862ed583334604051808373ffffffffffffffffffffffffffffffffffffffff1673ffffffffffffffffffffffffffffffffffffffff1681526020018281526020019250505060405180910390a1565b60016020528060005260406000206000915090508060000154908060010154905082565b60008060011515600060149054906101000a900460ff1615151461046a576040517f08c379a00000000000000000000000000000000000000000000000000000000081526004018080602001828103825260168152602001807f5468652067616d65206973206e6f74206f6e6c696e650000000000000000000081525060200191505060405180910390fd5b343373ffffffffffffffffffffffffffffffffffffffff1631116104f6576040517f08c379a00000000000000000000000000000000000000000000000000000000081526004018080602001828103825260128152602001807f496e73756666696369656e742066756e6473000000000000000000000000000081525060200191505060405180910390fd5b60006105006108a3565b9050600061050f82878761019b565b90507f5ad9f387e2ca71e2dbe1a57fb35c4e54e8049166d12132c78927be6ccd99aa88338388604051808473ffffffffffffffffffffffffffffffffffffffff1673ffffffffffffffffffffffffffffffffffffffff16815260200183815260200182815260200180602001828103825260058152602001807f616473616400000000000000000000000000000000000000000000000000000081525060200194505050505060405180910390a1600115158115151415610750577fda561b232579c4756aabd27dc35a4efe81b7c2cb89961c9bab1496d15d1edb35338388604051808473ffffffffffffffffffffffffffffffffffffffff1673ffffffffffffffffffffffffffffffffffffffff168152602001838152602001828152602001935050505060405180910390a160018060003373ffffffffffffffffffffffffffffffffffffffff1673ffffffffffffffffffffffffffffffffffffffff168152602001908152602001600020600001600082825401925050819055503373ffffffffffffffffffffffffffffffffffffffff166108fc600234029081150290604051600060405180830381858888f193505050501580156106d6573d6000803e3d6000fd5b507f6e0d11c40e939975aea1b614617340d694125da9ebed64c96cab216ca971564e3383604051808373ffffffffffffffffffffffffffffffffffffffff1673ffffffffffffffffffffffffffffffffffffffff1681526020018281526020019250505060405180910390a160018293509350505061089c565b600015158115151415610899577fda561b232579c4756aabd27dc35a4efe81b7c2cb89961c9bab1496d15d1edb35338388604051808473ffffffffffffffffffffffffffffffffffffffff1673ffffffffffffffffffffffffffffffffffffffff168152602001838152602001828152602001935050505060405180910390a160018060003373ffffffffffffffffffffffffffffffffffffffff1673ffffffffffffffffffffffffffffffffffffffff168152602001908152602001600020600101600082825401925050819055507fd7805f984edaf3a9c38876a78aa451412f4ed734e85e1c11bb294da8762f40183383604051808373ffffffffffffffffffffffffffffffffffffffff1673ffffffffffffffffffffffffffffffffffffffff1681526020018281526020019250505060405180910390a160008293509350505061089c565b50505b9250929050565b6000806001600a600143034060001c816108b957fe5b06019050809150509056fe4f6e6c79206f776e65722063616e2063616c6c20746869732066756e6374696f6ea265627a7a72315820cca5634323fb2f1d4cfa59a063d01d7f135748a122a7dab38f57d44facd9e37264736f6c63430005100032",
  "source": "pragma solidity 0.5.16;\n\ncontract Gaming {\n    /* Our Online gaming contract */\n    address owner;\n    bool online;\n\n\n    struct Player {\n        uint wins;\n        uint losses;\n    }\n\n    mapping (address => Player) public players;\n    \n    \n    constructor() public payable {\n        owner = msg.sender;\n        online = true;\n    }\n\n    modifier isOwner() {\n        require(msg.sender == owner, \"Only owner can call this function\");\n        _;\n    }\n\n    event GameFunded(address funder, uint amount);\n    \n    event PlayerWon(address player, uint mysteryNumber);\n    event PlayerLost(address player, uint mysteryNumber);\n    event PlayerOutput(address player, uint mysteryNumber, uint display);\n    event PlayerOutput1(address player, uint mysteryNumber, uint display, string messg);\n\n    function mysteryNumber() private view returns (uint) {\n        uint randomNumber = uint(blockhash(block.number-1))%10 + 1;\n        return randomNumber;\n    }\n\n\tfunction determineWinner(uint number, uint display, bool guess) public pure returns (bool) {\n    \tif (guess) { // Player guesses the number is lower, returns TRUE\n        \treturn number < display;\n    \t} else { // Player guesses the number is higher, return FALSE\n        \treturn number > display;\n    \t}\n\t}\n\n    function winOrLose(uint display, bool guess) external payable returns (bool, uint) {\n        /* Use true for a higher guess, false for a lower guess */\n        require(online == true, \"The game is not online\");\n        require(msg.sender.balance > msg.value, \"Insufficient funds\");\n        uint mysteryNumber_ = mysteryNumber();\n        bool isWinner = determineWinner(mysteryNumber_, display, guess);\n        emit PlayerOutput1(msg.sender, mysteryNumber_, display, \"adsad\");\n        if (isWinner == true) {\n            /* Player won */\n            emit PlayerOutput(msg.sender, mysteryNumber_, display);\n            players[msg.sender].wins += 1;\n            msg.sender.transfer(msg.value * 2);\n            \n            emit PlayerWon(msg.sender, mysteryNumber_); \n            return (true, mysteryNumber_);\n        } else if (isWinner == false) {\n            /* Player lost */\n            emit PlayerOutput(msg.sender, mysteryNumber_, display);\n            players[msg.sender].losses += 1;\n            \n            emit PlayerLost(msg.sender, mysteryNumber_);\n            return (false, mysteryNumber_);\n        }\n    }\n\n    function withdrawFunds() public isOwner {\n        msg.sender.transfer(address(this).balance);\n    }\n\n    function fundGame() public isOwner payable {\n        emit GameFunded(msg.sender, msg.value);\n    }\n\n    function() external payable {\n    }\n\n}\n",
  "sourcePath": "/home/user/Desktop/3.3C-resources/3.3P-src/contracts/Gaming.sol",
  "compiler": {
    "name": "solc",
    "version": "0.5.16+commit.9c3226ce.Emscripten.clang"
  },
  "schemaVersion": "3.4.1",
  "updatedAt": "2024-08-09T00:43:50.598Z",
  "devdoc": {
    "methods": {}
  },
  "userdoc": {
    "methods": {}
  }
}